:1000000016C030C02FC02EC0D1C12CC02BC02AC0FA
:1000100029C029C027C026C025C024C023C022C0B3
:1000200021C06364696E6F70737578585B0011242A
:100030001FBECFE5D2E0DEBFCDBF11E0A0E6B0E04D
:10004000ECEEF5E102C005900D92A834B107D9F7A6
:1000500021E0A8E4B1E001C01D92A738B207E1F7A2
:1000600078D2C2CACDCF1F920F920FB60F92112431
:100070000F931F932F933F934F935F936F937F93B0
:100080008F939F93AF93BF93EF93FF93CF93DF93A0
:10009000CDB7DEB7A097DEBFCDBF8CB180937E0118
:1000A000FE01319694E1DF011D929A95E9F78D30BA
:1000B00009F053C1E0914A01F0914B01E45BFE4F1E
:1000C000108280914901813009F07FC0CE014F96A6
:1000D0009F938F9302979F938F9302979F938F93F2
:1000E0008AE690E09F938F938CE491E09F938F93A7
:1000F000B1D48B8D9C8D9C01215031090FB6F894A1
:10010000DEBF0FBECDBF2F31310560F42D8D3E8D8A
:10011000A901415051094C30510520F4EF8DF8A14F
:10012000FF2324F483E790E047D412C18F31910577
:1001300081F4C9018B7F029741F02430310529F009
:100140002D7F2930310509F003C18FE790E034D4C9
:10015000FFC08E31910541F42230310509F0F8C01D
:100160008FE790E029D4F4C08D31910519F5223044
:100170003105A1F4CF0164E670E024D4892B31F479
:100180008E2F9F2F60E971E01DD402C08E2F8370E7
:10019000882321F08FE790E00FD4DAC08DE18093BF
:1001A000830120938201F0938001E0937F011092FC
:1001B0004901CEC08093830120938201F093800196
:1001C000E0937F0110924901C3C0809148018130C2
:1001D000B9F5CE0149969F938F9302979F938F9382
:1001E00002979F938F938AE690E09F938F938CE47E
:1001F00091E09F938F932ED48D899E890FB6F894AA
:10020000DEBF0FBECDBF883191059CF42F89388D9C
:100210002C33310574F4498D5A8D4C3351054CF40F
:1002200080938401209385014093860110924801B8
:100230008FC083E790E0C0D38DE990E0AFD388C052
:100240006CEB70E08CE491E0DDD3892B81F481ECE0
:1002500090E0B2D38FEC90E0AFD38AED90E0ACD3D6
:1002600085EE90E0A9D38EEE90E0A6D371C06FEC3E
:1002700070E08CE491E0C6D3892B19F587EF90E00C
:100280009BD3809180018F9380917F018F93809188
:1002900082011F928F93809183011F928F938AE630
:1002A00090E09F938F938E010F5F1F4F1F930F93CB
:1002B000B2D3C80181D30FB6F894DEBF0FBECDBF55
:1002C00047C06AED70E08CE491E09CD3892B09F57E
:1002D0008DEF90E063D3809186011F928F93809180
:1002E00085011F928F93809184011F928F938AE6DC
:1002F00090E09F938F938E010F5F1F4F1F930F937B
:100300008AD3C80159D30FB6F894DEBF0FBECDBF54
:100310001FC065EE70E08CE491E074D3892B39F452
:1003200084E091E03BD381E08093490111C06EEEFF
:1003300070E08CE491E066D3892B39F48DE990E08C
:100340002DD381E08093480103C085E291E034D34E
:1003500010924B0110924A010EC020914A01309137
:100360004B01F901E45BFE4F80832F5F3F4F3093D9
:100370004B0120934A01A0960FB6F894DEBF0FBE42
:10038000CDBFDF91CF91FF91EF91BF91AF919F9141
:100390008F917F916F915F914F913F912F911F911D
:1003A0000F910F900FBE0F901F9018951F920F92F4
:1003B0000FB60F9211242F933F934F935F936F9338
:1003C0007F938F939F93AF93BF93809186018F5FAD
:1003D0008C3319F08093860182C01092860180913F
:1003E00085018F5F8C3319F08093850178C010925E
:1003F0008501809184018F5F883119F08093840199
:100400006EC010928401809183018F5F809383017D
:10041000803249F4809182018F5F8093820181E074
:10042000809383014CC08F3181F480918201982F99
:100430009D7F943019F0993009F041C08F5F80930F
:10044000820181E0809383013AC08E3159F480911A
:1004500082018230A1F583E08093820181E0809364
:1004600083013DC08D3159F580918201823039F58B
:1004700040917F01509180019A01369527953695DC
:100480002795ABE7B4E1B2D29695879564E6689F6D
:100490009001699F300D11244217530731F4CA01AE
:1004A00060E971E08FD2482F01C043704423B9F056
:1004B00083E08093820181E08093830110C080916A
:1004C00082018D3061F481E08093820180917F010F
:1004D0009091800101969093800180937F01BF915C
:1004E000AF919F918F917F916F915F914F913F91CC
:1004F0002F910F900FBE0F901F9018958EB58860AA
:100500008EBD89B7806489BF80E18BBD82E08ABDE2
:100510008EB584608EBD08958FEF8ABB1BBA84BBF5
:1005200015BA11BA82BB0895109286011092850106
:10053000109284018AE1809383018CE08093820190
:1005400087E098E09093800180937F011092810171
:100550000895CF93DF9300D0CDB7DEB7CFDFDCDFD8
:10056000E3DF88E090E09A838983CE01019607D289
:10057000789485E291E020D20F2EFFEDAF2EF02D82
:100580000F2EFFEEBF2EF02D0F2EF7EFCF2EF02DFA
:100590001DEC0F2EFBEFDF2EF02D0F2EFDEFEF2EBB
:1005A000F02D0F2EFEEFFF2EF02D0F2EF4E67F2EF6
:1005B000F02D0F2EF0E98F2EF02D01E06894992494
:1005C00091F882990BC080918101811103C0009341
:1005D000810102C010928101829BFECF8091810136
:1005E000813009F00DC185990BC080917F019091F8
:1005F000800101969093800180937F01859BFECFBF
:1006000084990FC0809182018F5F8D3019F08093A3
:10061000820102C00093820100938301849BFECF7C
:10062000ABC183994FC0809183018F5F8093830119
:10063000803219F40093830143C08F3151F48091CB
:1006400082018D7F843011F08930D1F500938301D0
:1006500037C08E3139F480918201823089F5009360
:1006600083012EC08D3161F580918201823041F588
:1006700040917F01509180019A01369527953695DA
:100680002795ABE7B4E1B2D196958795789E900116
:10069000799E300D11244217530771F49A01329557
:1006A00022952F7023273F702327AEE3BAE09ED117
:1006B000889D4019112401C04370411100938301AA
:1006C000839BFECFA5BA40917F0150918001405D90
:1006D00057409A01ADECBCEC89D1969587959695DB
:1006E0008795969587959C01220F331F880F991F38
:1006F000880F991F880F991F820F931F481B590B52
:10070000FA01E05AFF4F80818BBB8FEC97E0019795
:10071000F1F700C00000B5BA20917F01309180014F
:10072000205D374063D196958795969587959695E8
:100730008795FC01E05AFF4F80818BBB8FEC97E0DF
:100740000197F1F700C00000C5BAE0918201E19F76
:10075000812D1124869586958695880F982F990F5F
:10076000990F890FE81BF0E0E05AFF4F80818BBBA7
:100770008FEC97E00197F1F700C00000D5BAE09147
:100780008201E19FE12D1124E695E695E695F0E0E2
:10079000E05AFF4F80818BBB8FEC97E00197F1F718
:1007A00000C00000E5BAE0918301E19F812D112492
:1007B000869586958695880F982F990F990F890FA2
:1007C000E81BF0E0E05AFF4F80818BBB8FEC97E095
:1007D0000197F1F700C00000F5BAE0918301E19FB5
:1007E000E12D1124E695E695E695F0E0E05AFF4FFD
:1007F00080818BBB8FEC97E00197F1F700C0000080
:10080000809181018111DDCE85990CC08091860196
:100810008F5F8C3319F08093860102C0109286019D
:10082000859BFECF84990CC0809185018F5F8C33AE
:1008300019F08093850102C010928501849BFECF40
:1008400083990CC0809184018F5F883119F0809367
:10085000840102C010928401839BFECFA5BAE0916F
:100860008601E19F812D1124869586958695880FB6
:10087000982F990F990F890FE81BF0E0E05AFF4F6E
:1008800080818BBB8FEC97E00197F1F700C00000EF
:10089000B5BAE0918601E19FE12D1124E695E69538
:1008A000E695F0E0E05AFF4F80818BBB8FEC97E03C
:1008B0000197F1F700C00000C5BAE0918501E19F02
:1008C000812D1124869586958695880F982F990FEE
:1008D000990F890FE81BF0E0E05AFF4F80818BBB36
:1008E0008FEC97E00197F1F700C00000D5BAE091D6
:1008F0008501E19FE12D1124E695E695E695F0E06E
:10090000E05AFF4F80818BBB8FEC97E00197F1F7A6
:1009100000C00000E5BAE0918401E19F812D11241F
:10092000869586958695880F982F990F990F890F30
:10093000E81BF0E0E05AFF4F80818BBB8FEC97E023
:100940000197F1F700C00000F5BAE0918401E19F42
:10095000E12D1124E695E695E695F0E0E05AFF4F8B
:1009600080818BBB8FEC97E00197F1F700C000000E
:1009700028CE90928301A4CE8399A4CEFACFFC0115
:10098000218120BD808189B988E98AB9599A86EA8E
:1009900080BD08955D9BFECF8CB90895CF93DF9302
:1009A000EC018881882329F02196F4DF8991811157
:1009B000FCCFDF91CF910895F1DF8DE0EBDF8AE08E
:1009C000E9DF0895AA1BBB1B51E107C0AA1FBB1F8B
:1009D000A617B70710F0A61BB70B881F991F5A95CB
:1009E000A9F780959095BC01CD010895A29FB00113
:1009F000B39FC001A39F01D0B29F700D811D112430
:100A0000911D0895FB01DC018D9101908019011069
:100A1000D9F3990B0895AEE0B0E0E0E1F5E0BBC595
:100A20000D891E8986E08C831A8309838FEF9FE7E7
:100A30009E838D83AE01475E5F4F6F89788DCE01B7
:100A400001961ED0EF81F885E00FF11F10822E96DF
:100A5000E4E0BDC5AEE0B0E0EFE2F5E09EC585E0C4
:100A60008C838B899C899A838983AE01495E5F4F11
:100A70006D897E89CE01019662D32E96E2E0A9C5EA
:100A8000ABE0B0E0E5E4F5E078C56C017B018A01FC
:100A9000FC0117821682838181FFBFC1CE010196BE
:100AA0003C01F6019381F70193FD859193FF8191BC
:100AB0007F01882309F4ADC1853239F493FD859116
:100AC00093FF81917F01853221F4B60190E09FD49C
:100AD000E8CF912C212C312CFFE1F315D8F08B328B
:100AE00079F038F4803279F08332A1F4232D20613B
:100AF0001DC08D3261F0803369F4232D216016C052
:100B0000832D8260382EE32DE4603E2E2AC0F32D23
:100B1000F8601DC037FC2DC020ED280F2A3040F0B2
:100B20008E32B9F436FC75C1232D2064322E19C0E3
:100B300036FE06C08AE0989E200D1124922E11C028
:100B4000EAE02E9E200D1124222EF32DF0623F2E7E
:100B500008C08C3621F4832D8068382E02C0883678
:100B600041F4F70193FD859193FF81917F018111FC
:100B7000B3CF982F9F7D9554933028F40C5F1F4F6F
:100B80009FE399830DC0833631F0833771F083354D
:100B900009F055C020C0F801808189830E5F1F4F86
:100BA00088248394912C530112C02801F2E04F0E47
:100BB000511CF801A080B18036FE03C0692D70E0A1
:100BC00002C06FEF7FEFC501D9D34C018201F32D35
:100BD000FF773F2E15C0280122E0420E511CF8017C
:100BE000A080B18036FE03C0692D70E002C06FEFB7
:100BF0007FEFC501B8D34C01F32DF0683F2E820181
:100C000033FC19C0822D90E088169906A0F4B60135
:100C100080E290E0FCD32A94F5CFF50137FC859172
:100C200037FE81915F01B60190E0F1D321102A9443
:100C300021E0821A91088114910479F7E1C0843689
:100C400011F0893639F5F80137FE07C060817181EE
:100C5000828193810C5F1F4F08C060817181072ED4
:100C6000000C880B990B0E5F1F4FF32DFF763F2E64
:100C700097FF09C090958095709561957F4F8F4F34
:100C80009F4FF0683F2E2AE030E0A30115D4882E54
:100C9000861844C0853731F4232D2F7EB22E2AE0EA
:100CA00030E025C0932D997FB92E8F36C1F018F40E
:100CB000883579F0AEC0803719F0883721F0A9C0A7
:100CC000E92FE061BE2EB4FE0DC0FB2DF460BF2EF7
:100CD00009C034FE0AC0292F2660B22E06C028E0C3
:100CE00030E005C020E130E002C020E132E0F80150
:100CF000B7FE07C060817181828193810C5F1F4FB5
:100D000006C06081718180E090E00E5F1F4FA301FB
:100D1000D3D3882E8618FB2DFF773F2E36FE0DC0CD
:100D2000232D2E7FA22E891458F434FE0BC032FCE2
:100D300009C0832D8E7EA82E05C0B82CA32C03C01D
:100D4000B82C01C0B92CA4FE0FC0FE01E80DF11DA6
:100D50008081803321F49A2D997EA92E09C0A2FEAC
:100D600006C0B394B39404C08A2D867809F0B39476
:100D7000A3FC10C0A0FE06C0B21480F4280C922C74
:100D80009B180DC0B21458F4B60180E290E03FD336
:100D9000B394F8CFB21418F42B1802C0982C212C5D
:100DA000A4FE0FC0B60180E390E031D3A2FE16C0CE
:100DB000A1FC03C088E790E002C088E590E0B6019E
:100DC0000CC08A2D867851F0A1FE02C08BE201C0D2
:100DD00080E2A7FC8DE2B60190E019D3891430F4CB
:100DE000B60180E390E013D39A94F8CF8A94F3018C
:100DF000E80DF11D8081B60190E009D38110F6CF96
:100E0000222009F44ECEB60180E290E000D32A946D
:100E1000F7CFF6018681978102C08FEF9FEF2B9667
:100E2000E2E1C7C320FD09C0FC0123FD05C022FF8C
:100E300002C07383628351834083089544FD17C0C9
:100E400046FD17C0AB01BC01DA01FB01AA0FBB1FB5
:100E5000EE1FFF1F1094D1F74A0F5B1F6E1F7F1FFD
:100E6000CB01BA01660F771F881F991F09C033E0B5
:100E700001C034E0660F771F881F991F3150D1F7EA
:100E8000620F711D811D911D08950F931F93CF93C4
:100E9000DF938C01C8017DD2EC0197FD06C050D2D2
:100EA000892BC1F7B801CE01EED2CE01DF91CF91EF
:100EB0001F910F9108958F929F92AF92BF92EF92E0
:100EC000FF920F931F93CF93DF938C01D62F7A015C
:100ED000B22E5FD29C0133272B32310531F02D32F7
:100EE000310559F48B2D8068B82ED15011F480E073
:100EF00061C0C8014ED297FDFACFCB2DCD7F2B2DEF
:100F00002073F9F48033E9F4AA24AA94AD0E09F40D
:100F10003EC0C8013ED297FD3AC09C012F7D3327C9
:100F20002835310541F4C264D25089F1C80131D26B
:100F300097FF07C02CC0B6FE02C0C26001C0C261EC
:100F4000DA2D812C912C540120ED280F283078F0D7
:100F5000C4FF03C0B80197D217C02A3040F0C6FFC3
:100F6000F9CF2F7D3FEE320F3630A0F727504C2FB0
:100F7000C501B40163DF4B015C01C260D15051F087
:100F8000C80107D297FFE0CFC1FD04C0B0CF812CCC
:100F9000912C5401C7FF08C0B094A0949094809401
:100FA000811C911CA11CB11C2C2FB501A401C701EF
:100FB00039DF81E0DF91CF911F910F91FF90EF908A
:100FC000BF90AF909F908F900895A0E2B0E0EAEEBE
:100FD000F7E0D6C25C01962E7A01F9018E010F5F0F
:100FE0001F4F680180E2D8011D928A95E9F7D5016B
:100FF00013968C9080E090E0612C712C30E061E0E1
:1010000070E083FC259183FE21918F01522E2111E6
:1010100003C080E090E090C02E3511F4009751F1AC
:10102000432F50E0481759073CF42D3559F12D3224
:1010300019F4772009F103C0772009F468C0452D21
:10104000469546954695D601A40FB11D452D47708E
:101050008B0102C0000F111F4A95E2F7A8015C91B5
:10106000452B4C93651459F0561410F45394E7CF64
:101070005A94E5CF31E004C07724739401C0712CF9
:101080000196BFCF772019F08E8180628E83311157
:1010900003C08824839417C0F6019E012F5D3F4F43
:1010A0008081809581932E173F07D1F7F2CFE1140D
:1010B000F10429F0D7018C93F70131967F019A94BE
:1010C000812C9920E9F0C50164D197FD17C0FC017E
:1010D000FF2723E0F595E7952A95E1F7EC0DFD1D37
:1010E000208130E0AC014770552702C03595279527
:1010F0004A95E2F720FDDBCFB501C5D1811089CF3C
:10110000E114F10411F0D7011C92C80115C0422F5F
:10111000469546954695D601A40FB11D422F4770BE
:101120008B0102C0000F111F4A95E2F7A8015C91E4
:10113000452B4C93622EA4CFA096EFE03DC2A0E0D9
:10114000B0E0E4EAF8E01CC26C01EB015A01FC01DA
:1011500017821682512CF601E380FE01E3FC859193
:10116000E3FE8191182FEF01882309F4E0C090E09D
:10117000E7D0892B19F0C60188DEEDCF153241F496
:10118000FE01E3FC1591E3FE1191EF01153271F4BC
:10119000C601FFD097FDC9C0412F50E09C01332705
:1011A00024173507C1F2B6016ED1C1C01A3239F425
:1011B000E3FC1591E3FE1191EF0101E001C000E0B5
:1011C000F12C20ED210F2A3078F402606F2D70E0B1
:1011D00080E090E040E232DEF62EFE01E3FC159165
:1011E000E3FE1191EF01EDCF01FF03C0F11003C049
:1011F0009EC0FF24FA94183619F01C3651F010C026
:10120000FE01E3FC1591E3FE1191EF01183641F464
:1012100008600460FE01E3FC1591E3FE1191EF010B
:10122000112309F484C0612F70E082E290E090D035
:10123000892B09F47CC000FD07C0F50180809180F6
:10124000C50102965C0102C0812C912C1E3649F426
:10125000F6014681578160E070E0202FC401E2DD95
:101260007ACF1336A1F401FD02C0FF24F394C60126
:1012700090D097FD5AC08114910429F0F401808325
:10128000C40101964C01FA94F110F1CF4AC01B350C
:1012900051F49E01A4016F2DC60197DEEC01892B4C
:1012A00009F03FC039C0C601F0DD97FD3EC01F36D2
:1012B00049F128F4143621F1193639F125C01337D4
:1012C00071F01537E9F020C08114910429F0F40180
:1012D0006082C40101964C01FA94FF2059F0C601C6
:1012E00058D03C0197FD06C02BD0892B69F3B6017D
:1012F000C301C9D081149104A1F0F401108211C07E
:10130000006203C0006101C00064202FA4016F2DA2
:10131000C601D1DD811105C0F6018381807329F4F6
:1013200006C000FD18CF539416CF552019F0852D17
:1013300090E002C08FEF9FEFCDB7DEB7EFE03CC18A
:10134000911118C1803219F089508550D0F7089555
:10135000FC010590061621F00020D9F7C001089580
:101360003197CF010895FC01059061507040011044
:10137000D8F7809590958E0F9F1F0895FC016150BE
:10138000704001900110D8F7809590958E0F9F1FA7
:101390000895CF93DF93EC012B8120FF33C026FF0C
:1013A0000AC02F7B2B838E819F8101969F838E8322
:1013B0008A8190E029C022FF0FC0E881F9818081F5
:1013C000082E000C990B009719F420622B831AC089
:1013D0003196F983E8830EC0EA85FB85099597FF6E
:1013E00009C02B81019611F080E201C080E1822BBF
:1013F0008B8308C02E813F812F5F3F4F3F832E8319
:10140000992702C08FEF9FEFDF91CF9108950F933F
:101410001F93CF93DF93FB01238121FD03C08FEF47
:101420009FEF2CC022FF16C0468157812481358151
:101430004217530744F4A081B1819D012F5F3F4FB4
:10144000318320838C93268137812F5F3F4F3783F1
:10145000268314C08B01EC01FB010084F185E02D93
:101460000995892BE1F6D80116968D919C911797D5
:10147000019617969C938E931697CE01DF91CF918C
:101480001F910F910895FB01238120FF12C026FDBB
:1014900010C08F3F3FEF930761F082832F7D206460
:1014A0002383268137812150310937832683992769
:1014B00008958FEF9FEF0895FA01AA27283051F180
:1014C000203181F1E8946F936E7F6E5F7F4F8F4F75
:1014D0009F4FAF4FB1E03ED0B4E03CD0670F781FD4
:1014E000891F9A1FA11D680F791F8A1F911DA11DB9
:1014F0006A0F711D811D911DA11D20D009F46894F2
:101500003F912AE0269F11243019305D3193DEF699
:10151000CF010895462F4770405D4193B3E00FD04F
:10152000C9F7F6CF462F4F70405D4A3318F0495D3A
:1015300031FD4052419302D0A9F7EACFB4E0A6951D
:101540009795879577956795BA95C9F7009761053F
:10155000710508959B01AC010A2E06945795479595
:1015600037952795BA95C9F7620F731F841F951F8A
:10157000A01D08959927882708952F923F924F9292
:101580005F926F927F928F929F92AF92BF92CF9213
:10159000DF92EF92FF920F931F93CF93DF93CDB71C
:1015A000DEB7CA1BDB0B0FB6F894DEBF0FBECDBF94
:1015B00009942A88398848885F846E847D848C8465
:1015C0009B84AA84B984C884DF80EE80FD800C816E
:1015D0001B81AA81B981CE0FD11D0FB6F894DEBF51
:0C15E0000FBECDBFED010895F894FFCFC1
:1015EC003F065B4F666D7D077F6F25642D25642D4F
:1015FC0025640057726F6E672076616C75650057B5
:10160C00726F6E672076616C7565206F6620646101
:10161C00746520666F72206D6F6E7468005072690D
:10162C006E742074696D652028666F726D6174200C
:10163C0032332D35392D3539293A200068656C70D7
:10164C0000436F6D6D616E64206C6973743A007049
:10165C0072696E742D64617465007072696E742D9C
:10166C0074696D65007365742D64617465007365D0
:10167C00742D74696D6500646174653A0074696DEC
:10168C00653A20005072696E74206461746520287C
:10169C00666F726D61742031302D31322D323031E4
:1016AC0039293A20005072696E74202768656C7075
:1016BC002720666F72206D6F726520696E666F727F
:0816CC006D6174696F6E00008E
:00000001FF
